:10000000001000204D24000031240000492400008D
:1000100000000000000000000000000000000000E0
:10002000000000000000000000000000312400007B
:10003000000000000000000031240000C124000086
:10004000312400003124000031240000312400005C
:100050003124000031240000312400003524000048
:1000600031240000550C0000450C00003124000034
:10007000312400003124000031240000312400002C
:1000800031240000312400003124000010B5064C5A
:100090002378002B07D1054B002B02D0044800E049
:1000A00000BF0123237010BD80010020000000006C
:1000B000DC2E000008B5084B002B03D00748084988
:1000C00000E000BF07480368002B03D0064B002B5D
:1000D00000D0984708BDC04600000000DC2E00009C
:1000E00084010020740100200000000008B5E12117
:1000F0000248490200F086FF08BDC0464C040020BB
:100100007047000010B5041C211C024800F0F7FEE7
:10011000201C10BD4C04002008B5024800F022FF4E
:10012000C0B208BD4C04002008B5024800F0F7FE3C
:1001300008BDC0464C040020F7B5461E051C0C1C2B
:1001400000F0C8FCF6B20190104800F09BFC0323BD
:10015000071C1F40F8D1019800F0D6FC301C00F0BD
:100160006BFC0B4E3319987900F0DFFC0137FBB2C2
:100170009D4208D0E318DBB2F318987900F0F2FC46
:1001800000F00EFDF2E72C19E0B2FEBD02100000F7
:100190009C01002070B5FFF7BFFF1B2801D0002095
:1001A00043E0224900F0D0FC0025061CFFF7B4FF15
:1001B0001F4C311C285500F0C7FC0135061C062DCC
:1001C000F4D1E278A37812021A43E1235B009A4249
:1001D000E5D8FFF7A1FF0E28E1D1311C00F0B4FCF7
:1001E0000025061CE378A2781B021343227912042F
:1001F00013436279120613439D420AD2FFF78CFF24
:100200006319311C987100F09FFC0135061CADB2DA
:10021000E8E7FFF781FF041CFFF77EFF00020443BD
:10022000A0B2801B46427041C0B270BDFFFF00000B
:100230009C01002070B51B20FFF764FF184900F0F7
:1002400083FC0024051C174EA05DFFF75BFF291CF3
:1002500000F07AFC0134051C062CF4D10E20FFF7C7
:1002600051FF291C00F070FC0025041CF378B278C3
:100270001B0213439D420AD273199879FFF742FF7C
:10028000211C00F061FC0135041CADB2EEE7E0B2C8
:100290002412FFF737FFE0B2FFF734FF70BDC0460E
:1002A000FFFF00009C01002008B5FFF73DFF024B57
:1002B0001878FFF725FF08BD64030020034B0122D7
:1002C0009A700022DA7098717047C0469C01002035
:1002D0000F4B10B502241C700E4B042201201A7023
:1002E00000F06CFC0320082100F0B2FB8021201CF0
:1002F00000F0AEFB084A00231D219170D37007481F
:10030000D118185C013388711D2BF8D110BDC0467F
:1003100065030020640300209C0100205C00002095
:1003200008B51D4BD879013805282ED802F0E2FA1D
:10033000030A162D1C2403229A700022DA7001226F
:10034000DA7120E005229A700022DA700722DA7151
:1003500001215A72062219729A721AE002229A70C8
:100360000022DA700D4A04E002229A700022DA704C
:100370000B4A1278DA710CE003229A700022DA70CC
:100380008822DA7113221A7203E0A120FFF796FF88
:1003900001E081229A7108BD9C01002065030020C4
:1003A0006403002008B5094BDA79032A04D0052A32
:1003B00007D11A7A064B01E01A7A064B1A70802090
:1003C00000E0A120FFF77AFF08BDC0469C01002095
:1003D000640300206503002008B5074B80201A1C29
:1003E000FA321178054AFC3311701A78044B1A70EE
:1003F000FFF764FF08BDC0469C0100206603002093
:100400006703002008B50B2000F030FBEF231840F5
:10041000082802D0822802D005E000F0FDFA8020F2
:10042000FFF74CFF07E0044B02229A700022DA70BB
:10043000A5229A71D87108BD9C01002070B50B20CF
:1004400000F014FB174C082808D00223A3700023E7
:10045000E370A523A3710123E37122E0657A237A77
:10046000607B2D021D43237B00021843AEB2013D89
:1004700000F04AFBE8B200F0DFFA00F03BFB022597
:10048000E071B54206D800F08BFB63190135987115
:10049000ADB2F6E70136B6B2A6708223360AE67030
:1004A000A37170BD9C01002038B5051C552000F0DB
:1004B00059FBE02000F056FB0824013C2878E4B208
:1004C00000F050FB0135002CF7D138BD08B500F025
:1004D000A3FA0B2000F0CAFAEF231840082806D030
:1004E00082280DD10B48FFF7DFFF00F095FA80203E
:1004F0004001042100F0D7FA8020FFF7DFFE07E07B
:10050000054B02229A700022DA70A5229A71D871E6
:1005100008BDC0468C0000209C01002038B5144B5B
:10052000D8791C7A5D7A07281ED802F0E3F9041DF9
:100530001D1D0C0C20200F48FFF7B6FF00F06CFAD1
:10054000FFF7C4FF13E00C4800F09CFA8307FAD1D0
:1005500028022043FF2100F0A6FA8020400102215A
:1005600000F0A1FA802000E0A020FFF7A7FE38BD30
:100570009C010020840000200210000038B5051CFA
:1005800000F0A8FA041C8020291C400100F08BFA1E
:10059000201C00F0B9FA38BDF7B50B2000F066FA60
:1005A0003B4B082808D002229A700022DA70A5225C
:1005B0009A710122DA716AE0DA791F7B151C4035E5
:1005C000EDB25C7B197A587A012D03D8314D0126A2
:1005D0002D7802E0304D03262D784E32D2B20096AF
:1005E000132A4FD824023C43012797403A1CCC27BA
:1005F0003F03A6B2174017D1910743D01D7C27486F
:1006000000F082FA281C00F090FA381C00F08DFAF5
:10061000E0B200F08AFA300A00F087FA8020400148
:10062000072100F040FA2FE000020843019087B252
:10063000301C00F069FA66426B1E3340DEB2BE42E7
:1006400001D9019BDEB20A24002E09D0301C0A21F8
:10065000FFF772FDBF1B041CBFB20098FFF78EFFAF
:10066000002F11D0AF4206D3211C281CFFF764FDD8
:100670007F1B041CF0E7F8B2211CFFF75DFD00278B
:10068000041CEAE7A22000E08020FFF717FEF7BD78
:100690009C01002066030020670300200610000074
:1006A00008B50020012101F0E3FFFFF71FFD00F076
:1006B000BDFA054B05481968054B1A8801F050FE34
:1006C000FFF706FE08BDC04680000020BC030020E6
:1006D0007A000020B84BF7B51A78002A00D0D2E093
:1006E000B64D281C01F00CFDB54C061E1CD0EFF3D6
:1006F000108372B6B34F201C3B6000F0FEFB8642B5
:1007000003DD201C00F0F9FB061C3B6883F3108816
:10071000AD4F321C391C281C00F0DBFB2368201C69
:100720005B68391C321C9847201C00F0F2FB061E47
:100730001CD0EFF3108372B6A24F281C3B6001F06F
:10074000F0FC864203DD281C01F0EBFC061C3B6834
:1007500083F310889C4F321C391C201C00F053FC82
:100760002B68281C5B68391C321C9847201C00F041
:100770006FFC964F3B78834216D0954EF02233881B
:10078000201C9343338000F063FC924B01223870AD
:100790001A70904204D0022806D13388302201E03A
:1007A0003388102213433380201C00F057FC8A4FFB
:1007B0003B7883421AD0864E0F223388201C934305
:1007C000338000F04BFC834B012238701A7090424A
:1007D00009D0002802D0022805D007E03388032280
:1007E0001343338002E0338818433080201C00F02C
:1007F0003BFC7A4F3B7883421FD0754E784B328852
:10080000201C1340338000F02FFC724B3870012203
:1008100005381A70032810D8328802F06BF80205E8
:10082000070A80235B0006E0802300E0C0239B00D2
:1008300001E08023DB00134333806A4E9623326845
:10084000DB009A420CD1201C00F014FC019000281F
:1008500006D101F043FE644F3A68801AC8282DD8AB
:10086000201C00F0EFFB3368604F984230D1594BA9
:100870001B78002B2CD1201C00F0FCFB0023FB5626
:10088000984225D1C6E04C4A1378002B00D1C1E034
:10089000554C2368002B08D101F020FE544B1B68F7
:1008A000C01A544B98423BD842E001F017FE23682F
:1008B000C01AFA235B00984232D8EDE73E4A012382
:1008C000137001F00BFE4A4B1860019B3B60C7E7B9
:1008D000201C00F0CFFB3870201C00F0CBFB002860
:1008E00000D197E0201C00F0ADFB3060281C01F027
:1008F000F9FB31689623DB00994200D18AE0344B42
:10090000281C1A8801F02CFD324B002408205921A4
:100910001C7000F09DF80820211C00F099F879E087
:10092000254A0023137001222E4B52421A6071E0B7
:10093000FFF730FC00286DD02F4B9B79082B35D06A
:1009400011D8022B23D006D8002B26D0012B5AD148
:10095000FFF7BEFC5AE0042B2AD015D3052B52D149
:10096000FFF76CFD52E00F2B20D006D80B2B11D0D7
:100970000C2B48D1FFF730FD48E0152B10D0342B5D
:100980003ED0142B3FD105E0FFF7CAFC3EE0FFF755
:1009900009FD3BE0FFF79AFD38E0184B04221A707E
:1009A000FFF730FD01F09AFD20602FE080202BE062
:1009B000FFF7F2FD2AE0C04678030020BC030020C8
:1009C0004C040020740300207903002079000020EB
:1009D0007A00002070030020B90300207C00002072
:1009E000FFF0FFFF80000020680300207D00002052
:1009F0006C03002060EA00009C01002064030020DA
:100A0000FFF78CFD02E0A020FFF758FCFFF712FC77
:100A1000FFF74AFCF7BDC0460820592108B500F091
:100A200017F80820002100F013F80B2000F01EF842
:100A30000E231842F9D008BD10B5041C552000F053
:100A400091F8A02000F08EF8201C00F08BF810BD6B
:100A500038B5051C403D55200C1C00F083F8E8B269
:100A600000F080F8201C00F07DF838BD10B5041CA3
:100A7000803C552000F076F8E0B200F073F800F00A
:100A80008FF810BD10B5041C552000F06BF8042041
:100A900000F068F8E0B200F065F8200A00F062F8B3
:100AA00000F07EF810BD38B5041C55200D1C00F078
:100AB00059F8442000F056F8E0B200F053F8200A4C
:100AC00000F050F800F06CF8281C00F04BF800F033
:100AD00067F838BD10B5552000F044F8292000F023
:100AE00041F800F05DF8041C00F05AF800020443DD
:100AF000A0B210BD08B5552000F034F8242000F055
:100B000031F800F04DF808BD10B5041C552000F078
:100B100029F8692000F026F8E0B200F023F8200A56
:100B200000F020F800F03CF810BD10B5041C552072
:100B300000F018F8642000F015F8201C00F012F8FE
:100B400000F02EF810BD00004840054BC0B2400038
:100B5000C35A09125940FF22C8B293431843704741
:100B6000F82B000070B50D4C051C291C201C01F051
:100B70007FFB201C01F0C9FA01F0B0FC061C201C10
:100B800001F0BEFA002804D101F0A8FC801B132854
:100B9000F5D9201C01F0CAFA281C70BD0004002001
:100BA00010B5054C201C01F0ABFA0028F9D0201C30
:100BB00001F0BCFAC0B210BD0004002038B5184CDA
:100BC0009621051C4900201C164A01F0C9FB002D86
:100BD0000BD0012D10D10021201C01F049FB201C5D
:100BE00001F093FA201C002101E0201C291C01F0D7
:100BF0003FFB201C01F089FA0F2001F075FC201C3E
:100C000001F07EFA051C201C002D02D001F08EFAA6
:100C1000F5E7E1218902044A01F0A2FB281C38BD56
:100C200000040020130400003104000008B5E12195
:100C300002488902024A01F093FB08BD000400202B
:100C40003104000008B5024801F0D2FA08BDC046E0
:100C5000BC03002008B5024801F0CAFA08BDC0462E
:100C600000040020F7B50E4D0E49281C00F024F8B2
:100C70000D4F01240026381C0C4900F01DF8391CCA
:100C80000196231C00940222094801F09FFA019664
:100C9000291C009404220323064801F097FAF7BDAB
:100CA000440400200008004248040020000C0042D8
:100CB000BC0300200004002001607047F7B508ACB9
:100CC000267804689D1E27686C1EA541ECB2920729
:100CD00005683A4327063A432A60026807252940F7
:100CE0005068B501002C00D05C03294301430C433C
:100CF0005460F7BD30B50368C0251C68AD0312050C
:100D00002A402243C024A40209042140114319604F
:100D100003685A6814435C6030BD036801211A6897
:100D20000A431A600268116801231942FBD1D16994
:100D30001942F8D17047036802211A680A431A6001
:100D40000268D3699907FCD4704703681A7ED107FB
:100D500002D41A7E9107FCD57047036800225A839B
:100D600070470368187E4007C00F70470368187EFD
:100D7000C009704703688022197E52420A431A76DE
:100D800070470368187E0123184070470368188D68
:100D9000C0B2704703681A7E01200242FBD0198559
:100DA0007047036801229A757047036801221A751B
:100DB0007047000003681A4A30B5934208D0194AB8
:100DC000934208D0184A934228D10B22102304E002
:100DD00009220E2301E00A220F23D4B20121134A73
:100DE000A14011600320C221890004405558E00051
:100DF000FF248440A5432C1CC0258540281C20438B
:100E000050508022D2011343094A5380094B19687C
:100E1000094B196053785BB2002BFBDB30BDC04639
:100E200000080042000C00420010004200E100E017
:100E3000000C0040F400002094000020F8B5041CD1
:100E4000151C0E1C1F1CFFF7B5FF201CFFF765FFCC
:100E5000B1001C220A4069072368090C0A431A6082
:100E6000226884239375012E1AD10821012D00D107
:100E700010210C4B79431868C00001F045FD236830
:100E800007219A890140D2044903D20C0A439A816E
:100E900023680004C20C9889400B400310439881DA
:100EA000F8BDC0469400002010B5041C01F016FBEC
:100EB000E0602368201C5B699847002808DA01F08D
:100EC0000DFBE368C01AA3689842F2D301204042A8
:100ED00010BDF7B58A18071C0D1C01920C1C019B54
:100EE000661B9C4207D0381CFFF7DEFF002802DBA0
:100EF00020700134F3E7301CFEBD3F20704713B56E
:100F000002686B46D97107335468191C0122A04747
:100F100016BD08B50069022100F0ACFC08BD08B59B
:100F20000069032100F0BCFC08BD38B50D1C041C91
:100F3000131C006903212A1C00F0AEFD002801D11A
:100F40000123636038BD000010B5054C23685A1CAE
:100F500004D103685B6998472060031C181C10BD0E
:100F6000E0000020074A08B51368591C04D001218D
:100F700049421160181C03E00069022100F07EFD67
:100F800008BDC046E000002008B5037803490233DD
:100F900003703A22024800F035FE08BDA40000208C
:100FA0001707002010B5017842780024A12908D144
:100FB000212A1ED110481149072200F023FE0124E6
:100FC00017E0212915D1202A05D10C4907220A480A
:100FD00000F0ACFC0DE0222A03D18278074BDA71D5
:100FE00007E0232A05D1C278837812021A43044B02
:100FF0001A60201C10BDC046170700209800002072
:10100000A00000207047F7B5051C0191171C01F0E6
:1010100065FA0024E860BC4211D2019B28691A19C4
:1010200002213B1B00F0BEFC061E06D101F056FA61
:10103000EB68C01AAB68984201D2A419EBE7201CF8
:10104000FEBD0000014B18687047C04698000020A4
:10105000014B1879C0B2704798000020014B5879B5
:10106000C0B2704798000020014B9879C0B2704719
:1010700098000020024BD879012318407047C046E1
:1010800098000020064BFA2189009960054900224A
:101090000831196004495A6019611A767047C046D0
:1010A0004C040020182E000017070020014B03609D
:1010B0007047C046482E000010B507230F2202409B
:1010C000141C00093034092A00DD0734CC54013BDC
:1010D000F4D210BD10B5034B041C036001F046FAB6
:1010E000201C10BD482E000070B582291ED1C2B24E
:1010F00029495301CB189D69284C80012C40C025FB
:10110000AD052C439C61264C0832201858610B68B1
:10111000520199180C798020404220430871D15C1B
:101120007020814330200143D15433E0002931D174
:10113000C0B2194A4301D3189968184DC0242940F8
:10114000A40521439960174912680830596040018D
:10115000815C0726B1430126314381549E693540A5
:101160002C439C610E4C5C61815C7024A143102473
:10117000214381549C680C49101821408024640349
:101180002143996099684022890B890399604379CA
:101190001343437170BDC04620070020FFFFFF8F3F
:1011A0007405002038060020FF3F00F038B5041C0D
:1011B00008CC01211A78051C0A431A708022201CD1
:1011C0000021520001F033FC2B689A78D107FCD43F
:1011D0005C6238BD134BF0B51B6899035A029B0142
:1011E000C90ED20E5B0F1F2900D105211F2A00D185
:1011F0001D22072B00D1032304688E01278D0A4985
:101200001F2539403143218501682A400C8DAC43AC
:1012100022430A8502681903108D044B03400B43D7
:101220001385F0BD246080003FF8FFFFFF8FFFFFB4
:10123000EFF3108303600123436072B670470368C5
:10124000002B02D162B6BFF36F8F7047836973B50D
:10125000041C002B16D1061C683635786846FFF74B
:10126000E7FF019BEDB2013B02D33578EDB2FAE71F
:1012700068460193FFF7E3FF002085421BD0606EB4
:10128000236E17E06846FFF7D3FF019B0025013B63
:1012900004D3221CB4321578EDB2F8E76846019306
:1012A000FFF7CDFF0020854205D0231CB033AC34BE
:1012B00018682368C01A76BD10B5027D41685301D5
:1012C000CB189C68094808322040802464032043DE
:1012D000986098685201800B800398600B684021E9
:1012E0009B181A790A431A7110BDC046FF3F00F0DF
:1012F00073B5041C6846FFF79BFF0026019B5A1E2E
:101300000192002B05D0201C083001F0D0FA061CF9
:10131000F4E76846FFF793FFA5696846002D19D1E9
:10132000FFF786FF019B013B591C07D0221C683246
:1013300011785A1E002943D0131CF5E76846019323
:10134000FFF77DFF0025236EB5423ED0626E9342CB
:101350004ED33AE0FFF76CFF019B013B591C08D0CC
:10136000221CB43215785A1EEDB2002D28D0131C61
:10137000F4E768460193FFF762FF0025231C211C58
:10138000AC33B031B5423FD01A68086882423BD2D4
:10139000511CA218196068321179201CC9B208309A
:1013A00001F05DFA0135E9E7221C68320021117075
:1013B0004D321678581E8E4214D1031C5A1CF3D19C
:1013C00068460193FFF73BFF3DE0626E93423AD1DE
:1013D000002323660123A3616846FFF729FF019BD1
:1013E000013BEBE71170201C0193FFF765FFF6E767
:1013F0005A1CE31822660133D97F201CC9B2083079
:1014000001F02DFA01359EE70A68196891421AD158
:1014100000221A606846A261FFF70AFF019B013BA8
:101420005A1CCDD0221CB432002111700132167822
:10143000581E8E4201D1031CF2E71170201C01934B
:10144000FFF73AFFEAE7281C76BDF0B585B00191B9
:10145000171C061CFFF74CFF02A8FFF7E9FE00244B
:10146000039B5A1E0392002B0FD0BC42F8D2351CAE
:101470000835281C01F015FA0028F1D0281C01F0CD
:10148000FFF9019B18550134EFE702A8FFF7D7FEDB
:10149000201C05B0F0BD10B5041CFFF729FF201C6F
:1014A000083001F0FEF910BD10B5041CFFF720FF55
:1014B000201C083001F009FA10BD037D13B5426805
:1014C000191C041C0831106849014118C879012110
:1014D00008425AD05B01D3189A689204920C03D147
:1014E000201CFFF7E9FE48E0E06900281ED1626693
:1014F000221C6C32E16168465A60FFF799FE019B3D
:10150000013B5A1C35D0221C0121683211704C322B
:101510001178C9B2517051785A1E002901D0131C9C
:10152000EFE7201C0193FFF7C7FEE8E7211CB0316D
:101530000A600022E261221C20325A606846FFF7EE
:1015400077FE019B013B581C13D0221C0121B432B1
:1015500011704C3A11784D32C9B2117011785A1E7F
:10156000002901D0131CEEE7201C0193FFF7A4FE15
:10157000E7E768460193FFF762FE63681A68237D18
:1015800008335B01D3187F22DA7113BD37B500230E
:101590006C46E3710734201C0D1CFFF7F5FC2B682B
:1015A0001818286020783EBD03290BD10D4BB222BC
:1015B0001B685200985C80214942014399540221E2
:1015C00068220CE001290CD1064B92221B685200C4
:1015D000985C802149420143995402212822FF321C
:1015E000995470472007002038B50024274B01216B
:1015F000051C201C1C7001F03BF8201C012101F08F
:101600003BF8234B201C01211C7001F031F8201CF9
:10161000012101F031F81F4B2021DA6905200A432E
:10162000DA610F2101F05EF806200F2101F05AF86F
:10163000194B1A4A5A805A7852B2002AFBDB1848D2
:1016400000F046FF174C201CFFF7B0FD201CFFF7F1
:10165000C1FD23687F2219780A401A701A78042184
:101660000A431A701A890C218A431A81C1210E4A31
:10167000890050580002000A5050802111601A78E9
:1016800002210A431A7001232B7038BD3406002052
:101690001C07002000040040000C00400640000031
:1016A000B12000002007002000E100E000780028C1
:1016B00010D0094B01211B681A898A431A811A8BA1
:1016C00008210A431A831A8B04210A431A83034B05
:1016D00000221A607047C04620070020240800201E
:1016E0000F4B9A69920B92039A611B680222FF3397
:1016F0001A7298798022524202439A711A7A90079C
:10170000FCD5084B081C997A7F2210409143014375
:101710009972997A802252420A439A727047C0465F
:10172000200700200050004108B50B7900208342BB
:101730000AD1081CFFF736FC002805D1034B012015
:101740009A69920B92039A6108BDC0462007002057
:10175000F8B50D1C832A18D1CAB238495301CB18E9
:101760009C693748AD012040C024A40520439861FE
:101770003448083245195D610B685201D15C702014
:10178000814340200143D15456E0022A50D12E4FCC
:101790008E00F059002802D003685B699847B82092
:1017A00000F0E0FE294B041C0360244B436008302A
:1017B00001F046F8221C002368326561A3612366AC
:1017C000E36163661370536493644432137253721B
:1017D000FF2360681D406D014519A968184A0A4039
:1017E000C02189050A43AA606169626819401268CC
:1017F00008314901885C0725A843032528438854FC
:10180000626960681A40211C5201821820315160BF
:10181000616962680B4012685B01D318FF339A7AE2
:1018200001210A439A72201CFFF746FDBC5103E0D8
:10183000081C111CFFF758FCF8BDC046200700200B
:10184000FFFFFF8F38060020F8060020482E00001A
:1018500038B5051C0124064BA200D258002A06D038
:10186000211C281C0134FFF773FFE4B2F3E738BDF5
:10187000E400002008B5084B8A00D058002803D0A7
:1018800003689B68984706E0C9B2044B49015918A0
:1018900088688004800C08BDF8060020200700201E
:1018A00010B50C1CFFF7E6FF00280CD0064BE1B288
:1018B0001B680831490159184A7980235B42134358
:1018C0004B710223CB7110BD2007002070B5CAB246
:1018D000134B1448540189015918031959609D6824
:1018E0001149083229408025AD0229439960996841
:1018F0004026890B890399600368510159180D79B5
:1019000035430D715101591889794D06FAD55101A8
:101910005918C979CD07FAD50419A068C0B270BDAD
:101920003806002020070020FF3F00F038B50C4BA0
:10193000141C1B680D1CFF335A7940210A435A714D
:101940000021FFF7C3FFA04200D9201C0023A342BF
:1019500004D0044A9A5CEA540133F8E738BDC04623
:10196000200700203806002010B5C9B20C484901F4
:1019700043189A689204920C3F2A08D9141C9A685A
:10198000403CA404920BA40C9203224302E09A6808
:10199000920B92039A6041188868C0B210BDC0468D
:1019A00020070020F0B51C1C2F4B85B01B68061CBF
:1019B0000D1C0292002B51D02C4F3978C9B200294E
:1019C00002D1081C00F058FE64233B70284BAA008B
:1019D000D058002805D0036802995B68221C9847FC
:1019E00040E0301C291CFFF745FFA04204D2301C08
:1019F000291CFFF73FFF041C291C301CFFF7B4FF14
:101A00001C4FE9B24A010191396803928B18FF33E8
:101A10005A7A01210A4318495A72AB01C91802982F
:101A2000221C00F0FBFF002C1BD0301C291CFFF7F0
:101A300021FF002815D1019B3A6808335B01D318B8
:101A400019794020014319710121D9710399531863
:101A5000FF339A7A01210A439A7202E00120404240
:101A600000E0201C05B0F0BD240800201C07002069
:101A7000F8060020200700203806002013B56C4629
:101A80000734221C0123FFF78DFF012801D12078A4
:101A900001E00120404216BDF0B51C1C3F4B85B053
:101AA0001B680E1C0292002B6AD08023DB019C4233
:101AB00066D83B4D2978C9B2002902D1081C00F034
:101AC000DBFD642300222B700092002C56D0354D94
:101AD000F7B22B6801933B1C0833019A5B01D318C2
:101AE0009B79DB091AD0304B3049186800F00CFFA5
:101AF0002F4B1721584300F007FF3B1C0833019A76
:101B00005B01D318DB799A0708D42A4B9A5D002A27
:101B100038D1421E002835D0101CEEE7254B00229C
:101B20009A55251E3F2D00D93F25234AB301D318CE
:101B3000181C02992A1C039300F070FF194A7B01BC
:101B4000D318039AA9045A619A69890C920B9203DB
:101B50000A439A613B1C019A08335B01D3180222A5
:101B6000DA715979802252420A435A71009B029AD3
:101B70005B1952190093641B0292A6E700980BE0D0
:101B8000012008E001229A557B01ED18AB69101C79
:101B90009B0B9B03AB61404205B0F0BD24080020C5
:101BA0003406002020070020F400002040420F00EF
:101BB000701101006C0500207405002070B50E4DF9
:101BC0001C1C8B01ED18281C0E1C111C221C00F083
:101BD00025FFF6B20949760189194D618A69084BDA
:101BE000201C13408B618B69A2049B0B920C9B03FE
:101BF00013438B6170BDC046740500202007002090
:101C0000FF3F00F0F7B5114B01901B780F1C141C1F
:101C1000002B19D10E4B1E78002E01D1151C08E0A7
:101C20000C4D0D482E888019361900F0F7FE2E80D5
:101C30000AE0002D08D0BA192B1C01980021FFF7EB
:101C4000BDFF36182D1AF4E7201CFEBD1607002034
:101C5000140700206A05002069040020F8B50E1C56
:101C600000AF151E012D28D9D31DDB08DB006A4605
:101C7000D21A9546081C00F091FF01306C464000D6
:101C80000323207063700222AA420ED23378002B05
:101C90000BD0511CC9B20136A354A94204D0002371
:101CA00002326354D2B2EFE72A1C0548211CFFF729
:101CB000A9FF431E9841C0B200E00020BD46F8BD18
:101CC0001707002008B5044B00221A70034B044983
:101CD0001A88FFF797FF08BD140700206A05002047
:101CE00069040020F0B5204A87B001230026009146
:101CF00002A91370051C0296FFF748FC03AC0927E4
:101D000001903A1C201C311C00F091FE02236370EC
:101D1000A023E371FA232372029B0122DB19638063
:101D2000019B62712371104A009B27701670BB42A1
:101D300005D1281C211C1A1CFFF764FF11E00B4B76
:101D400001221A700A4B211C3A1C281C1E80029684
:101D5000FFF758FF281C02A9FFF718FC281CFFF703
:101D6000B1FF012007B0F0BD1607002014070020C6
:101D70006A05002070B5CB7892B0061C0C1C022BB3
:101D800008D1C9882748FFF7ADFF051C681E8541AB
:101D9000EDB244E0012B04D1CA882349112A39D875
:101DA00035E00025032B3AD18B78AB4205D1CA88A8
:101DB0001E490B7893422AD82CE0022B02D18A7953
:101DC0001B4903E0012B05D18A791A49FFF746FF29
:101DD000051C24E0032B22D1174B01A91868FFF73B
:101DE0006BF9164B03A91868FFF766F9144B05A9A0
:101DF0001868FFF761F9134B07A91868FFF75CF93A
:101E00006B460533DD77A279301C01A9DEE7D2B23B
:101E1000002A00D10A78301CFFF7F4FE0125281CA7
:101E200012B070BD17070020782E0000742E00003D
:101E30008A2E0000682E00000CA0800040A08000C8
:101E400044A0800048A0800073B5051C48780C1C95
:101E50000B2878D800F04EFD081C7728773E430603
:101E6000474B686F00206FE0097801AA002903D171
:101E700011705170281C09E0002313705370334B0C
:101E80001B78012B00D11370281C002102234FE086
:101E90008A780023012A04D101AA137053702C4BB5
:101EA000EEE72A4A137049E08E78012E07D1284BBD
:101EB00001AA00211E701170281C331C38E0002E6E
:101EC00008D1224A01231370224A9169890B8903A0
:101ED000916138E0A178281CFFF702FC33E0281C50
:101EE000FFF748FF30E0281C00211B4A1FE00A785A
:101EF0000020D30628D1281CFFF7AAFCA278154998
:101F0000154B02241A600A682A23FF33D05C204351
:101F1000D0544A20FF30145C01231C4314548A69B6
:101F2000920B92038A610EE00C4A281C00210123C7
:101F3000FFF744FE07E08A78084B1A60054B9A6960
:101F4000920B92039A61012076BDC046680400207E
:101F50001507002020070020240800201807002073
:101F6000F8B54B4B071C1C78002C00D08FE0494D76
:101F70002868838B19070ED5201C211CFFF7B4F8A5
:101F80002B6810201A1CFF32917A01439172424A49
:101F9000146008229A832B689A8B50071FD504225D
:101FA0009A833E4B1A78002A0AD01A78013AD2B2A4
:101FB0001A701878C0B2002802D1012100F05CFB31
:101FC000374B1A78002A0AD01A78013AD2B21A701E
:101FD0001878C0B2002802D1012100F04DFB2B6817
:101FE000FF331A7AD10626D510221A725A79402167
:101FF0000A432C495A710A786023381C1A4202D1CC
:10200000FFF722FF01E0FFF78FFB002806D02B68C7
:102010008022FF33997952420A4301E0224B202269
:102020009A712B68FF331A7A500604D540221A722F
:10203000597A0A435A722968FE230E8C07241E40DF
:10204000E1B2002E23D0002C21D0321C01232241EA
:102050001A4216D0221C2868083252018218D07900
:10206000184203D1D279DA401A4207D00F4BA200AE
:10207000D058002807D003681B6898470123A34065
:102080009E43013CDCE7381CFFF78EFAF6E7F8BD0B
:102090001407002020070020240800203406002018
:1020A0001C07002038060020FF500041F8060020E1
:1020B00008B50248FFF754FF08BDC04617070020C7
:1020C000014A024B1A60704700500041200700206F
:1020D0000120704708B50368014A1B6A984708BD8C
:1020E0001304000010B5041C0069FEF716FE201C46
:1020F000143000F0C1FB201C203000F0BDFB10BDEF
:1021000008B5143000F0CDFB08BD10B5041C201C30
:10211000203000F0C6FB0028F9D12069FEF715FE3B
:1021200010BD08B5203000F0C2FB08BD70B5051C1D
:102130001435041C281C00F0A3FB231C30331B782F
:10214000061CFF2B07D0281C00F0B1FB0A2802DD7B
:10215000A36BE26B1A60301C70BD08B5143000F040
:10216000B4FB08BDF0B585B01D1C0AAB1B78041C80
:1021700000930BAB1B78161C01930CAB1B780F1C48
:1021800002930DAB1B78039300234360FA239B005B
:1021900083600D4B08330360143000F051FB201CAA
:1021A000203000F04DFB009A231C2C3327619A70DD
:1021B000019A201CDA70029A1E701A71039A5D70DF
:1021C0001A7505B0F0BDC046A02E000030B585B030
:1021D000041C08A8057809A8007800950190FF2044
:1021E00002900390201CFFF7BDFF201C05B030BDFE
:1021F00038B5041C0069FEF7B4FD002815D020692D
:10220000FEF7C4FD251C1435011C281C00F027FB1B
:10221000231C30331B78FF2B07D0281C00F047FB12
:10222000092802DC636BE26B1A602069FEF7A9FDE6
:10223000002811D0251C2035281C00F032FB002876
:1022400007D0281C00F01CFBC1B22069FEF7A2FDDC
:1022500002E02069FEF7A9FD2069FEF787FD00284E
:1022600005D02069FEF786FD2069FEF776FD38BDB2
:1022700070B5041C00690E1CFEF783FD251C20357B
:1022800000280ED0281C00F00CFB002833D008E0FA
:10229000EFF31083DA071DD4EFF305823F231A40D2
:1022A00005D1281C00F01CFB0028F1D11BE0103ADE
:1022B000D2B253B2002B08DA0F231A40083A114B5E
:1022C00092089200D218536804E09B08C0330E4A6B
:1022D0009B009B582069FEF754FD0028E1D0201C8C
:1022E000FFF786FFDDE7281C311C00F0B8FA2069F3
:1022F000FEF757FD03E02069311CFEF74BFD01207E
:1023000070BDC04618ED00E000E100E0F023081CBD
:1023100018403038434258417047F0231B011940A0
:1023200080239B0099420CD0C0239B00994206D089
:1023300080235B000520994204D0002002E00720A2
:1023400000E0062070470F231940012905D002390B
:102350004B424B410220C01A00E0002070470000B1
:10236000F0B5031C2C3385B0041C0F1C18780E210B
:10237000151C00F0B7F9231C2D33261C18782F36B6
:102380000E2100F0AFF903963378022B07D1231CFE
:1023900040331878FF2802D00E2100F0A3F9261C44
:1023A00030363078FF2815D0012100F061F93178FE
:1023B0001C4A89008B5C1C4E5B09DB019819606329
:1023C0001A481B18A363895C1F220A40012191400F
:1023D000E163196001210A1C3B1C2069FEF72EFDF8
:1023E000291C201CFFF799FF291C071C201CFFF744
:1023F000AAFF291C061C201CFFF788FF391C00902F
:10240000331C20690122FEF759FC039E231C2E3346
:1024100031781A782069FEF76DFC2069FEF78BFC95
:1024200005B0F0BDF82D00001844004114440041EF
:10243000FEE7000008B5034B1B68002B00D098474F
:1024400008BDC046280800200DBEFEE738B5144977
:10245000144CA1420DD1144B02225A62134B0A2292
:10246000DA70134B2A229A7300F094F800F05AF8AD
:102470000BE0104D8D42EED00023CA18E818A2429E
:1024800004D2006804331060F7E7FEE79042E2D020
:10249000094B0A4A9342DED2002204C3F9E7C04640
:1024A0000000002080010020FC700041005000412D
:1024B00000480041E02E000080010020400800207C
:1024C00008B500F02CF8002801D100F01DF808BD77
:1024D000014B18607047C04628080020014B18685F
:1024E0007047C0462C08002070B5041E08D0054B6C
:1024F0001D681E1C00F012F833685B1BA342F9D361
:1025000070BDC0462C08002008B5034B1A68013284
:102510001A6000F085F908BD2C08002070470020E3
:102520007047704710B500F073F800F03DFAFFF700
:10253000F8FF0120FFF7D8FF084C201CFFF754F8E4
:10254000201CFFF7B3F8FEF7ABF8FEF7C3F8044B17
:10255000002BFAD000E000BFF7E7C04617070020C5
:102560000000000008B500F045FA08BD08B500F00D
:102570004BFA08BD024B5B785BB2002BFADB70476D
:10258000000C0040024BDB68DA06FBD57047C04602
:102590000008004010B5164B164C82225A60A38CDE
:1025A00080229343A384FFF7EDFF134B1A68802327
:1025B000920E92029B001343A362104BE36292239C
:1025C0005B00A384FFF7DEFFA38C02221343A384E6
:1025D000FFF7D8FF0A4C80235B00A360FFF7CAFF18
:1025E000084B6360FFF7C6FF074A084B1A6010BD2F
:1025F00000400041000800402460800080BB0A7C4D
:10260000000C004000070300006CDC02F400002016
:10261000124A134B10B55360124BC021186A0906B9
:102620000002000A0143196200240721946011602E
:10263000196A80220902090A12060A431A620A4B21
:10264000196A1A6A0A4309490A431A62201C1A21A4
:10265000013400F00DF8072CF8D110BD10E000E0B7
:102660007FBB000000ED00E000040040FC0500001E
:1026700008B500F037F808BD164B8000C35C1F207A
:102680005A09F0B50340042A22D0134CD201101984
:10269000114DC41840342478104F5659E4B2D5195E
:1026A0000769002E0CD10420012902D1011C21430D
:1026B00001E0211C81439B18094A9B18197007E00F
:1026C000012902D19940816102E001229A406A60A9
:1026D000F0BDC046F82D0000004400411044004108
:1026E000404400413F4B8000F0B5C55C1F241818E2
:1026F0006A092C404678042A71D0081F17281FD871
:1027000000F0F8F80C0E0E0E1E1E1E1E1010161AEB
:102710001A1E1E1E1E1E1E1C1E6D1E6D002310E0A6
:1027200001230EE006233340581E8341043308E0A2
:1027300001233340023304E0062302E0072300E0D4
:102740000923294FD201A018C01907780420384066
:10275000370701D4022600E04226304372B6002932
:1027600001D01A2906D1214D0121A14053195960E8
:10277000996116E08E1E012E0DD81C4E0123A34038
:1027800095196B60032903D1194FD1194B6000E0F3
:10279000AB6104231BE0012906D1144DA14053195C
:1027A00099600423984313E061085118EE0706D599
:1027B000104F1D01C9190E780F23334004E00D4D51
:1027C0000F2649190D78B5432B430B70012318438D
:1027D000054EA2189219107062B6002001E0012087
:1027E0004042F0BDF82D000040440041004400414B
:1027F0001044004130440041F7B58A18061C0D1CF6
:1028000001920C1C019B671B9C4207D03368217806
:102810001B68301C984701340028F3D1381CFEBDDA
:10282000054A08B51368591C05D0013B1360002BFD
:1028300001D1024B984708BDF8000020010000209C
:1028400010B5041C802000F0D5F800212060802203
:1028500000F0EDF800236360201CA36010BD436806
:102860007F2201331340826810B5934203D042683F
:102870000468A154436010BD002343608360704727
:10288000826843689A4209D0836802687F21D35CDA
:10289000826801320A408260181C01E00120404237
:1028A000704742688368D01A00D58030704742680C
:1028B00083689A4204DB43688068C01A7F3003E073
:1028C00082684368D01A01387047826843689A4228
:1028D00003D083680268D05C01E001204042704769
:1028E00042688368501C7F221040C01A43425841FE
:1028F000C0B2704702B4714649084900095C4900FA
:102900008E4402BC7047C046002934D00123002207
:1029100010B488422CD301242407A14204D281425E
:1029200002D209011B01F8E7E400A14204D281426E
:1029300002D249005B00F8E7884201D3401A1A43EB
:102940004C08A04202D3001B5C0822438C08A04222
:1029500002D3001B9C082243CC08A04202D3001BD8
:10296000DC082243002803D01B0901D00909E3E752
:10297000101C10BC7047002801D00020C04307B4D1
:10298000024802A14018029003BDC0461900000091
:102990000029F0D003B5FFF7B9FF0EBC4243891AF6
:1029A0001847C0467047C04670B50E4B0E4D002408
:1029B000ED1AAD101E1CAC4204D0A300F35898478A
:1029C0000134F8E700F00CF9084B094D0024ED1A2A
:1029D000AD101E1CAC4204D0A300F358984701343C
:1029E000F8E770BD60010020600100206001002058
:1029F0007001002008B5034B011C186800F068F84E
:102A000008BDC0465C01002008B5034B011C1868D6
:102A100000F016F808BDC0465C01002010B5002388
:102A2000934203D0CC5CC4540133F9E710BD031CBE
:102A30008218934202D019700133FAE77047000000
:102A400030B5002940D004390B68002B00DAC918D2
:102A50001E4A1368141C002B02D14B60116033E036
:102A600099420FD208680A189A4205D11368526831
:102A7000C01808604A6000E04B60216024E08A4290
:102A800003D8131C5A68002AF9D11D685C198C42BE
:102A90000BD10968691858181960904214D114684C
:102AA0005268091919605A600EE08C4202D90C2351
:102AB000036009E008680C18944203D11468526856
:102AC000001908604A60596030BDC04634080020D3
:102AD00070B50323CD1C9D430835061C0C2D01D277
:102AE0000C2501E0002D3FDB8D423DD3204B1C68BF
:102AF0001A1C211C002913D00868431B0DD40B2B72
:102B000002D90B60CC181EE08C4202D163681360BE
:102B10001AE0486860600C1C16E00C1C4968E9E784
:102B2000144C2068002803D1301C00F025F82060E8
:102B3000301C291C00F020F8431C15D0C41C0323B2
:102B40009C4384420AD12560201C0B300722231DA0
:102B50009043C31A0BD05A42E25008E0211A301CAD
:102B600000F00AF80130EED10C233360002070BD74
:102B7000340800203008002038B5074C0023051C1D
:102B8000081C236000F012F8431C03D12368002BBB
:102B900000D02B6038BDC0463C0800200023C25C3A
:102BA0000133002AFBD1581E70470000094A136800
:102BB000002B0CD018186946884202D81060181CE7
:102BC0007047054B0C2201201A604042F8E7034B86
:102BD0001360EFE7380800203C0800204008002080
:102BE000F8B5C046F8BC08BC9E467047F8B5C0466C
:102BF000F8BC08BC9E4670470000891112239B3226
:102C00002446AD573665BF74488CC19D5AAFD3BEBC
:102C10006CCAE5DB7EE9F7F88110080193331A22CC
:102C2000A5562C47B7753E64C99C408DDBBF52AE9C
:102C3000EDDA64CBFFF976E802218B3010029913AC
:102C40002667AF763444BD554AADC3BC588ED19F7C
:102C50006EEBE7FA7CC8F5D983310A20911218038C
:102C6000A7772E66B5543C45CBBD42ACD99E508F5C
:102C7000EFFB66EAFDD874C904428D5316619F705C
:102C80002004A9153227BB364CCEC5DF5EEDD7FC3C
:102C90006888E1997AABF3BA85520C4397711E604C
:102CA000A1142805B3373A26CDDE44CFDFFD56EC1C
:102CB000E9986089FBBB72AA06638F7214409D512C
:102CC0002225AB343006B9174EEFC7FE5CCCD5DDFC
:102CD0006AA9E3B8788AF19B87730E6295501C410C
:102CE000A3352A24B1163807CFFF46EEDDDC54CDDC
:102CF000EBB962A8F99A708B088481951AA793B6EC
:102D00002CC2A5D33EE1B7F04008C919522BDB3ADB
:102D1000644EED5F766DFF7C899400859BB712A6AB
:102D2000ADD224C3BFF136E0C1184809D33B5A2ABB
:102D3000E55E6C4FF77D7E6C0AA583B4188691978B
:102D40002EE3A7F23CC0B5D14229CB38500AD91B9B
:102D5000666FEF7E744CFD5D8BB502A4999610876B
:102D6000AFF326E2BDD034C1C3394A28D11A580B7B
:102D7000E77F6E6EF55C7C4D0CC685D71EE597F43B
:102D80002880A1913AA3B3B2444ACD5B5669DF785B
:102D9000600CE91D722FFB3E8DD604C79FF516E42B
:102DA000A9902081BBB332A2C55A4C4BD7795E683B
:102DB000E11C680DF33F7A2E0EE787F61CC495D50B
:102DC0002AA1A3B03882B193466BCF7A5448DD591B
:102DD000622DEB3C700EF91F8FF706E69DD414C5EB
:102DE000ABB122A0B9923083C77B4E6AD5585C49FB
:102DF000E33D6A2CF11E780F0208800F0E08800F49
:102E00000F08800F1608800F1708800F1808800F12
:102E10001908800F00000000000000000000000002
:102E2000FF0E00002B0F0000FB0E00001F0F000024
:102E3000130F0000650F0000490F000000000000A4
:102E40000000000000000000BB1400004B14000054
:102E500097140000A9140000AD100000D510000068
:102E60004D1200000000000041726475696E6F2011
:102E70004C4C4300040309041201100102000040FD
:102E80004123580000010102030141726475696E1B
:102E90006F204E616E6F20457665727900000000EC
:102EA000000000000000000071220000F92700006F
:102EB000232100000B210000012100002D21000032
:102EC0005B210000D520000061230000E520000008
:102ED000D1200000000000004300000000000000BE
:102EE00072B6104A104B04329A4207D8BFF34F8F84
:102EF0000E4A0F4BDA60BFF34F8F11E00D4B197D77
:102F0000C807FBD5188B2021FF31920852000143DE
:102F10001983DA61084A1A801A7DD107FCD5E5E7E2
:102F2000C046FDE700000000030200000400FA05AF
:102F300000ED00E00040004102A5FFFF860101070F
:102F40000101010706010000000000004A5441474A
:102F5000494345206D6B49490001130408FF0000F7
:102F600000C2010065736172454D564E20676F7255
:102F7000504D564E40420F0000C2010000000800B4
:102F8000FFFFFFFF0904000001020200000524000A
:102F90001001042402060524060001052401010194
:102FA0000705810310001009040100020A00000057
:102FB00007050202400000070583024000000000F0
:102FC000FFFFFFFF00000000830000000200000080
:102FD0008200000040420F00FFFFFFFF00000000E2
:102FE00000000000000000000000000000000000E1
:102FF000000000000000000000000000D82E0000CB
:1030000000000000000000000000000000000000C0
:1030100000000000000000000000000000000000B0
:1030200000000000000000000000000000000000A0
:10303000000000000000000000000000FC00002074
:10304000B5000000650C000085100000C1200000E4
:103050008D000000000000000000000000000000E3
:040000030000244D88
:00000001FF
